2026-05-19T09:30:00.001Z IN  8=FIX.4.2|9=77|35=A|34=1|49=CLIENT_TEST|52=20260519-09:30:00.000|56=BROKER_TEST|98=0|108=30|10=185|
2026-05-19T09:30:01.100Z OUT 8=FIX.4.2|9=77|35=A|34=1|49=BROKER_TEST|52=20260519-09:30:01.000|56=CLIENT_TEST|98=0|108=30|10=186|
2026-05-19T09:31:00.250Z IN  8=FIX.4.2|9=149|35=D|34=2|49=CLIENT_TEST|52=20260519-09:31:00.000|56=BROKER_TEST|11=ORD-0001|21=1|38=2500|40=2|44=101.25|54=1|55=TESTA|59=0|60=20260519-09:31:00.000|10=209|
2026-05-19T09:31:00.410Z OUT 8=FIX.4.2|9=166|35=8|34=2|49=BROKER_TEST|52=20260519-09:31:00.000|56=CLIENT_TEST|6=0|11=ORD-0001|14=0|17=EX-0001|20=0|31=0|32=0|37=BRK-0001|38=2500|39=0|54=1|55=TESTA|150=0|151=2500|10=184|
2026-05-19T09:31:05.025Z OUT 8=FIX.4.2|9=182|35=8|34=3|49=BROKER_TEST|52=20260519-09:31:05.000|56=CLIENT_TEST|6=101.25|11=ORD-0001|14=1000|17=EX-0002|20=0|31=101.25|32=1000|37=BRK-0001|38=2500|39=1|54=1|55=TESTA|150=1|151=1500|10=206|
2026-05-19T09:31:07.300Z OUT 8=FIX.4.2|9=179|35=8|34=4|49=BROKER_TEST|52=20260519-09:31:07.000|56=CLIENT_TEST|6=101.30|11=ORD-0001|14=2500|17=EX-0003|20=0|31=101.35|32=1500|37=BRK-0001|38=2500|39=2|54=1|55=TESTA|150=2|151=0|10=076|
2026-05-19T09:32:00.100Z IN  8=FIX.4.2|9=140|35=D|34=3|49=CLIENT_TEST|52=20260519-09:32:00.000|56=BROKER_TEST|11=ORD-0002|21=1|38=10000|40=1|54=2|55=TESTB|59=0|60=20260519-09:32:00.000|10=042|
2026-05-19T09:32:00.300Z OUT 8=FIX.4.2|9=195|35=8|34=5|49=BROKER_TEST|52=20260519-09:32:00.000|56=CLIENT_TEST|6=0|11=ORD-0002|14=0|17=EX-0004|20=0|31=0|32=0|37=BRK-0002|38=10000|39=8|54=2|55=TESTB|150=8|151=0|58=Insufficient test liquidity|10=216|
2026-05-19T09:33:00.100Z IN  8=FIX.4.2|9=148|35=D|34=4|49=CLIENT_TEST|52=20260519-09:33:00.000|56=BROKER_TEST|11=ORD-0003|21=1|38=5000|40=2|44=88.10|54=1|55=TESTC|59=0|60=20260519-09:33:00.000|10=176|
2026-05-19T09:33:01.200Z IN  8=FIX.4.2|9=140|35=F|34=5|49=CLIENT_TEST|52=20260519-09:33:01.000|56=BROKER_TEST|11=CXL-0003|41=ORD-0003|37=BRK-0003|54=1|55=TESTC|60=20260519-09:33:01.000|10=009|
2026-05-19T09:33:01.450Z OUT 8=FIX.4.2|9=145|35=9|34=6|49=BROKER_TEST|52=20260519-09:33:01.000|56=CLIENT_TEST|11=CXL-0003|37=BRK-0003|39=0|41=ORD-0003|58=Too late to cancel test order|102=0|10=086|
2026-05-19T09:34:00.000Z IN  8=FIX.4.2|9=85|35=5|34=6|49=CLIENT_TEST|52=20260519-09:34:00.000|56=BROKER_TEST|58=End test session|10=098|
2026-05-19T09:34:00.100Z OUT 8=FIX.4.2|9=88|35=5|34=7|49=BROKER_TEST|52=20260519-09:34:00.000|56=CLIENT_TEST|58=Logout acknowledged|10=205|
